{
  "contractName": "PathProxyFactory",
  "abi": [
    {
      "inputs": [
        {
          "internalType": "address",
          "name": "_owner",
          "type": "address"
        },
        {
          "internalType": "address",
          "name": "_dev",
          "type": "address"
        },
        {
          "internalType": "uint256",
          "name": "_fee",
          "type": "uint256"
        }
      ],
      "stateMutability": "nonpayable",
      "type": "constructor"
    },
    {
      "anonymous": false,
      "inputs": [
        {
          "indexed": false,
          "internalType": "address",
          "name": "_user",
          "type": "address"
        },
        {
          "indexed": false,
          "internalType": "address",
          "name": "contractAddress",
          "type": "address"
        }
      ],
      "name": "AddWhiteList",
      "type": "event"
    },
    {
      "anonymous": false,
      "inputs": [
        {
          "indexed": false,
          "internalType": "address",
          "name": "dev",
          "type": "address"
        },
        {
          "indexed": false,
          "internalType": "uint256",
          "name": "fee",
          "type": "uint256"
        },
        {
          "indexed": false,
          "internalType": "address",
          "name": "owner",
          "type": "address"
        },
        {
          "indexed": false,
          "internalType": "address",
          "name": "factory",
          "type": "address"
        }
      ],
      "name": "CreateProxy",
      "type": "event"
    },
    {
      "anonymous": false,
      "inputs": [
        {
          "indexed": true,
          "internalType": "address",
          "name": "previousOwner",
          "type": "address"
        },
        {
          "indexed": true,
          "internalType": "address",
          "name": "newOwner",
          "type": "address"
        }
      ],
      "name": "OwnershipTransferred",
      "type": "event"
    },
    {
      "anonymous": false,
      "inputs": [
        {
          "indexed": false,
          "internalType": "address",
          "name": "_user",
          "type": "address"
        },
        {
          "indexed": false,
          "internalType": "address",
          "name": "contractAddr",
          "type": "address"
        }
      ],
      "name": "RemoveWhiteList",
      "type": "event"
    },
    {
      "anonymous": false,
      "inputs": [
        {
          "indexed": false,
          "internalType": "address",
          "name": "_user",
          "type": "address"
        },
        {
          "indexed": false,
          "internalType": "address",
          "name": "_dev",
          "type": "address"
        }
      ],
      "name": "SetDev",
      "type": "event"
    },
    {
      "anonymous": false,
      "inputs": [
        {
          "indexed": false,
          "internalType": "address",
          "name": "_user",
          "type": "address"
        },
        {
          "indexed": false,
          "internalType": "uint256",
          "name": "fee",
          "type": "uint256"
        }
      ],
      "name": "SetFee",
      "type": "event"
    },
    {
      "anonymous": false,
      "inputs": [
        {
          "indexed": false,
          "internalType": "address",
          "name": "_user",
          "type": "address"
        },
        {
          "indexed": false,
          "internalType": "address",
          "name": "_fac",
          "type": "address"
        }
      ],
      "name": "TransferFactoryTo",
      "type": "event"
    },
    {
      "inputs": [
        {
          "internalType": "address",
          "name": "",
          "type": "address"
        }
      ],
      "name": "isWhiteListed",
      "outputs": [
        {
          "internalType": "bool",
          "name": "",
          "type": "bool"
        }
      ],
      "stateMutability": "view",
      "type": "function",
      "constant": true
    },
    {
      "inputs": [],
      "name": "name",
      "outputs": [
        {
          "internalType": "string",
          "name": "",
          "type": "string"
        }
      ],
      "stateMutability": "view",
      "type": "function",
      "constant": true
    },
    {
      "inputs": [],
      "name": "owner",
      "outputs": [
        {
          "internalType": "address",
          "name": "",
          "type": "address"
        }
      ],
      "stateMutability": "view",
      "type": "function",
      "constant": true
    },
    {
      "inputs": [
        {
          "internalType": "address",
          "name": "",
          "type": "address"
        }
      ],
      "name": "proxyExists",
      "outputs": [
        {
          "internalType": "bool",
          "name": "",
          "type": "bool"
        }
      ],
      "stateMutability": "view",
      "type": "function",
      "constant": true
    },
    {
      "inputs": [
        {
          "internalType": "address",
          "name": "",
          "type": "address"
        }
      ],
      "name": "proxyMap",
      "outputs": [
        {
          "internalType": "address",
          "name": "",
          "type": "address"
        }
      ],
      "stateMutability": "view",
      "type": "function",
      "constant": true
    },
    {
      "inputs": [],
      "name": "renounceOwnership",
      "outputs": [],
      "stateMutability": "nonpayable",
      "type": "function"
    },
    {
      "inputs": [],
      "name": "symbol",
      "outputs": [
        {
          "internalType": "string",
          "name": "",
          "type": "string"
        }
      ],
      "stateMutability": "view",
      "type": "function",
      "constant": true
    },
    {
      "inputs": [
        {
          "internalType": "address",
          "name": "newOwner",
          "type": "address"
        }
      ],
      "name": "transferOwnership",
      "outputs": [],
      "stateMutability": "nonpayable",
      "type": "function"
    },
    {
      "inputs": [
        {
          "internalType": "uint256",
          "name": "",
          "type": "uint256"
        }
      ],
      "name": "users",
      "outputs": [
        {
          "internalType": "address",
          "name": "",
          "type": "address"
        }
      ],
      "stateMutability": "view",
      "type": "function",
      "constant": true
    },
    {
      "inputs": [
        {
          "internalType": "uint256",
          "name": "",
          "type": "uint256"
        }
      ],
      "name": "whiteList",
      "outputs": [
        {
          "internalType": "address",
          "name": "",
          "type": "address"
        }
      ],
      "stateMutability": "view",
      "type": "function",
      "constant": true
    },
    {
      "inputs": [],
      "name": "createProxy",
      "outputs": [],
      "stateMutability": "nonpayable",
      "type": "function"
    },
    {
      "inputs": [
        {
          "internalType": "uint256",
          "name": "_fee",
          "type": "uint256"
        }
      ],
      "name": "setFee",
      "outputs": [],
      "stateMutability": "nonpayable",
      "type": "function"
    },
    {
      "inputs": [
        {
          "internalType": "address",
          "name": "_user",
          "type": "address"
        },
        {
          "internalType": "uint256",
          "name": "_fee",
          "type": "uint256"
        }
      ],
      "name": "setFeeToUser",
      "outputs": [],
      "stateMutability": "nonpayable",
      "type": "function"
    },
    {
      "inputs": [
        {
          "internalType": "address",
          "name": "_dev",
          "type": "address"
        }
      ],
      "name": "setDev",
      "outputs": [],
      "stateMutability": "nonpayable",
      "type": "function"
    },
    {
      "inputs": [
        {
          "internalType": "address",
          "name": "_user",
          "type": "address"
        },
        {
          "internalType": "address",
          "name": "_dev",
          "type": "address"
        }
      ],
      "name": "setDevToUser",
      "outputs": [],
      "stateMutability": "nonpayable",
      "type": "function"
    },
    {
      "inputs": [
        {
          "internalType": "address",
          "name": "contractAddr",
          "type": "address"
        }
      ],
      "name": "addWhiteList",
      "outputs": [],
      "stateMutability": "nonpayable",
      "type": "function"
    },
    {
      "inputs": [
        {
          "internalType": "address",
          "name": "_user",
          "type": "address"
        },
        {
          "internalType": "address",
          "name": "contractAddr",
          "type": "address"
        }
      ],
      "name": "addWhiteListToUser",
      "outputs": [],
      "stateMutability": "nonpayable",
      "type": "function"
    },
    {
      "inputs": [
        {
          "internalType": "address",
          "name": "contractAddr",
          "type": "address"
        }
      ],
      "name": "removeWhiteList",
      "outputs": [],
      "stateMutability": "nonpayable",
      "type": "function"
    },
    {
      "inputs": [
        {
          "internalType": "address",
          "name": "_user",
          "type": "address"
        },
        {
          "internalType": "address",
          "name": "contractAddr",
          "type": "address"
        }
      ],
      "name": "removeWhiteListFromUser",
      "outputs": [],
      "stateMutability": "nonpayable",
      "type": "function"
    },
    {
      "inputs": [
        {
          "internalType": "address",
          "name": "_fac",
          "type": "address"
        }
      ],
      "name": "transferFactoryTo",
      "outputs": [],
      "stateMutability": "nonpayable",
      "type": "function"
    },
    {
      "inputs": [
        {
          "internalType": "address",
          "name": "_user",
          "type": "address"
        },
        {
          "internalType": "address",
          "name": "_fac",
          "type": "address"
        }
      ],
      "name": "transferFactoryToForUser",
      "outputs": [],
      "stateMutability": "nonpayable",
      "type": "function"
    }
  ],
  "bytecode": "0x60806040523480156200001157600080fd5b50604051620042b1380380620042b18339810160408190526200003491620002ea565b620000486200004262000147565b6200014b565b60408051808201909152601280825271506174682050726f787920466163746f727960701b6020909201918252620000839160019162000227565b5060408051808201909152600a80825269464143544f52595f563160b01b6020909201918252620000b79160029162000227565b506001600160a01b038216620000ea5760405162461bcd60e51b8152600401620000e1906200039a565b60405180910390fd5b6001600160a01b038316620001135760405162461bcd60e51b8152600401620000e19062000370565b600380546001600160a01b0319166001600160a01b03841617905560048190556200013e836200019b565b50505062000434565b3390565b600080546001600160a01b038381166001600160a01b0319831681178455604051919092169283917f8be0079c531659141344cd1fd0a4f28419497f9722a3daafe3b4186f6b6457e09190a35050565b620001a562000147565b6001600160a01b0316620001b862000218565b6001600160a01b031614620001e15760405162461bcd60e51b8152600401620000e190620003c2565b6001600160a01b0381166200020a5760405162461bcd60e51b8152600401620000e1906200032a565b62000215816200014b565b50565b6000546001600160a01b031690565b8280546200023590620003f7565b90600052602060002090601f016020900481019282620002595760008555620002a4565b82601f106200027457805160ff1916838001178555620002a4565b82800160010185558215620002a4579182015b82811115620002a457825182559160200191906001019062000287565b50620002b2929150620002b6565b5090565b5b80821115620002b25760008155600101620002b7565b80516001600160a01b0381168114620002e557600080fd5b919050565b600080600060608486031215620002ff578283fd5b6200030a84620002cd565b92506200031a60208501620002cd565b9150604084015190509250925092565b60208082526026908201527f4f776e61626c653a206e6577206f776e657220697320746865207a65726f206160408201526564647265737360d01b606082015260800190565b60208082526010908201526f04f574e45525f43414e5f545f42455f360841b604082015260600190565b6020808252600e908201526d04445565f43414e5f545f42455f360941b604082015260600190565b6020808252818101527f4f776e61626c653a2063616c6c6572206973206e6f7420746865206f776e6572604082015260600190565b6002810460018216806200040c57607f821691505b602082108114156200042e57634e487b7160e01b600052602260045260246000fd5b50919050565b613e6d80620004446000396000f3fe60806040523480156200001157600080fd5b5060043610620001545760003560e01c80636f9170f611620000c9578063d477f05f1162000087578063d477f05f14620002a9578063dbb0a4e314620002c0578063e2cf63b514620002d7578063e7cd4a0414620002ee578063e947e3821462000305578063f2fde38b146200031c5762000154565b80636f9170f6146200025d578063715018a614620002745780638da5cb5b146200027e57806395d89b4114620002885780639d9a124714620002925762000154565b8063401f1c771162000117578063401f1c7714620001f75780635c475d42146200020e578063684649a61462000225578063699aa64e146200022f57806369fe0e2d14620002465762000154565b806301381df4146200015957806306fdde0314620001725780632042e5c214620001945780632f154ea714620001ab578063365b98b214620001d1575b600080fd5b620001706200016a366004620019e4565b62000333565b005b6200017c620004cb565b6040516200018b919062001add565b60405180910390f35b62000170620001a5366004620019c0565b62000561565b620001c2620001bc366004620019c0565b62000834565b6040516200018b919062001ad2565b620001e8620001e236600462001a47565b62000849565b6040516200018b919062001a60565b620001706200020836600462001a1b565b62000874565b620001e86200021f36600462001a47565b620009cd565b62000170620009de565b6200017062000240366004620019e4565b62000c5a565b620001706200025736600462001a47565b62000ddc565b620001c26200026e366004620019c0565b62000f6b565b6200017062000f80565b620001e862000fd4565b6200017c62000fe3565b62000170620002a3366004620019e4565b62000ff2565b62000170620002ba366004620019c0565b62001146565b62000170620002d1366004620019c0565b6200131b565b62000170620002e8366004620019e4565b620014d1565b62000170620002ff366004620019c0565b62001653565b620001e862000316366004620019c0565b620018a9565b620001706200032d366004620019c0565b620018c4565b6200033d62001941565b6001600160a01b03166200035062000fd4565b6001600160a01b031614620003825760405162461bcd60e51b8152600401620003799062001c05565b60405180910390fd5b6001600160a01b038216620003ab5760405162461bcd60e51b8152600401620003799062001b5f565b6001600160a01b03821660009081526006602052604090205460ff161515600114620003eb5760405162461bcd60e51b8152600401620003799062001bce565b6001600160a01b038116620004145760405162461bcd60e51b8152600401620003799062001cc2565b6001600160a01b038083166000908152600560205260409081902054905163d477f05f60e01b8152911690819063d477f05f906200045790859060040162001a60565b600060405180830381600087803b1580156200047257600080fd5b505af115801562000487573d6000803e3d6000fd5b505050507f7b4a3682445cf2b8276b6dde2faa9f9a653ea60d9ebadf169518e64f55666aae8383604051620004be92919062001a74565b60405180910390a1505050565b60018054620004da9062001d60565b80601f0160208091040260200160405190810160405280929190818152602001828054620005089062001d60565b8015620005595780601f106200052d5761010080835404028352916020019162000559565b820191906000526020600020905b8154815290600101906020018083116200053b57829003601f168201915b505050505081565b6200056b62001941565b6001600160a01b03166200057e62000fd4565b6001600160a01b031614620005a75760405162461bcd60e51b8152600401620003799062001c05565b6001600160a01b038116620005d05760405162461bcd60e51b8152600401620003799062001c96565b6001600160a01b03811660009081526009602052604090205460ff161515600114620006105760405162461bcd60e51b8152600401620003799062001b33565b60005b6007548110156200075357600060056000600784815481106200064657634e487b7160e01b600052603260045260246000fd5b60009182526020808320909101546001600160a01b039081168452908301939093526040918201902054905163102172e160e11b8152911691508190632042e5c2906200069890869060040162001a60565b600060405180830381600087803b158015620006b357600080fd5b505af1158015620006c8573d6000803e3d6000fd5b505050507fd7137e8024b165db50e14cfcad28604fa05875deea5fe5da13b692c2f591a7f3600783815481106200070f57634e487b7160e01b600052603260045260246000fd5b60009182526020909120015460405162000735916001600160a01b031690869062001a74565b60405180910390a150806200074a8162001d9d565b91505062000613565b5060005b6008548110156200081257816001600160a01b0316600882815481106200078e57634e487b7160e01b600052603260045260246000fd5b6000918252602090912001546001600160a01b03161415620007fd57600060088281548110620007ce57634e487b7160e01b600052603260045260246000fd5b9060005260206000200160006101000a8154816001600160a01b0302191690836001600160a01b031602179055505b80620008098162001d9d565b91505062000757565b506001600160a01b03166000908152600960205260409020805460ff19169055565b60066020526000908152604090205460ff1681565b600781815481106200085a57600080fd5b6000918252602090912001546001600160a01b0316905081565b6200087e62001941565b6001600160a01b03166200089162000fd4565b6001600160a01b031614620008ba5760405162461bcd60e51b8152600401620003799062001c05565b6001600160a01b038216620008e35760405162461bcd60e51b8152600401620003799062001b5f565b6001600160a01b03821660009081526006602052604090205460ff161515600114620009235760405162461bcd60e51b8152600401620003799062001bce565b6001600160a01b03808316600090815260056020526040908190205490516369fe0e2d60e01b815291169081906369fe0e2d906200096690859060040162001d57565b600060405180830381600087803b1580156200098157600080fd5b505af115801562000996573d6000803e3d6000fd5b505050507f01fe2943baee27f47add82886c2200f910c749c461c9b63c5fe83901a53bdb498383604051620004be92919062001a8e565b600881815481106200085a57600080fd5b3360009081526006602052604090205460ff161562000a115760405162461bcd60e51b8152600401620003799062001cf9565b60085462000a335760405162461bcd60e51b8152600401620003799062001d30565b6003546004546040516000926001600160a01b031691903390309062000a599062001995565b62000a68949392919062001aa7565b604051809103906000f08015801562000a85573d6000803e3d6000fd5b50905060005b60085481101562000b915760006001600160a01b03166008828154811062000ac357634e487b7160e01b600052603260045260246000fd5b6000918252602090912001546001600160a01b03161462000b7c57816001600160a01b031663e7cd4a046008838154811062000b0f57634e487b7160e01b600052603260045260246000fd5b6000918252602090912001546040516001600160e01b031960e084901b16815262000b47916001600160a01b03169060040162001a60565b600060405180830381600087803b15801562000b6257600080fd5b505af115801562000b77573d6000803e3d6000fd5b505050505b8062000b888162001d9d565b91505062000a8b565b5033600081815260056020908152604080832080546001600160a01b038088166001600160a01b0319928316179092556006909352818420805460ff191660019081179091556007805491820181559094527fa66cc928b5edb82af9bd49922954155ab7b0942694bea4ce44661d9a8736c6889093018054909216841790915560035460045491517fda8319500e1cf93c0a371153377e64edcfa18ef82ca40a1fc669b73c640aee5f9462000c4f9492909216929190309062001aa7565b60405180910390a150565b62000c6462001941565b6001600160a01b031662000c7762000fd4565b6001600160a01b03161462000ca05760405162461bcd60e51b8152600401620003799062001c05565b6001600160a01b03821662000cc95760405162461bcd60e51b8152600401620003799062001b5f565b6001600160a01b03821660009081526006602052604090205460ff16151560011462000d095760405162461bcd60e51b8152600401620003799062001bce565b6001600160a01b03811662000d325760405162461bcd60e51b8152600401620003799062001c3a565b6001600160a01b038083166000908152600560205260409081902054905163dbb0a4e360e01b8152911690819063dbb0a4e39062000d7590859060040162001a60565b600060405180830381600087803b15801562000d9057600080fd5b505af115801562000da5573d6000803e3d6000fd5b505050507f6fff2d09d572fe1c3784fc61020cdae09d1e76a0a934c79b86c761695cd7f4a78383604051620004be92919062001a74565b62000de662001941565b6001600160a01b031662000df962000fd4565b6001600160a01b03161462000e225760405162461bcd60e51b8152600401620003799062001c05565b60005b60075481101562000f65576000600560006007848154811062000e5857634e487b7160e01b600052603260045260246000fd5b60009182526020808320909101546001600160a01b03908116845290830193909352604091820190205490516369fe0e2d60e01b81529116915081906369fe0e2d9062000eaa90869060040162001d57565b600060405180830381600087803b15801562000ec557600080fd5b505af115801562000eda573d6000803e3d6000fd5b505050507f01fe2943baee27f47add82886c2200f910c749c461c9b63c5fe83901a53bdb496007838154811062000f2157634e487b7160e01b600052603260045260246000fd5b60009182526020909120015460405162000f47916001600160a01b031690869062001a8e565b60405180910390a1508062000f5c8162001d9d565b91505062000e25565b50600455565b60096020526000908152604090205460ff1681565b62000f8a62001941565b6001600160a01b031662000f9d62000fd4565b6001600160a01b03161462000fc65760405162461bcd60e51b8152600401620003799062001c05565b62000fd2600062001945565b565b6000546001600160a01b031690565b60028054620004da9062001d60565b62000ffc62001941565b6001600160a01b03166200100f62000fd4565b6001600160a01b031614620010385760405162461bcd60e51b8152600401620003799062001c05565b6001600160a01b038216620010615760405162461bcd60e51b8152600401620003799062001b5f565b6001600160a01b03821660009081526006602052604090205460ff161515600114620010a15760405162461bcd60e51b8152600401620003799062001bce565b6001600160a01b038116620010ca5760405162461bcd60e51b8152600401620003799062001c96565b6001600160a01b03808316600090815260056020526040908190205490516339f3528160e21b8152911690819063e7cd4a04906200110d90859060040162001a60565b600060405180830381600087803b1580156200112857600080fd5b505af11580156200113d573d6000803e3d6000fd5b50505050505050565b6200115062001941565b6001600160a01b03166200116362000fd4565b6001600160a01b0316146200118c5760405162461bcd60e51b8152600401620003799062001c05565b6001600160a01b038116620011b55760405162461bcd60e51b8152600401620003799062001cc2565b60005b600754811015620012f85760006005600060078481548110620011eb57634e487b7160e01b600052603260045260246000fd5b60009182526020808320909101546001600160a01b039081168452908301939093526040918201902054905163d477f05f60e01b815291169150819063d477f05f906200123d90869060040162001a60565b600060405180830381600087803b1580156200125857600080fd5b505af11580156200126d573d6000803e3d6000fd5b505050507f7b4a3682445cf2b8276b6dde2faa9f9a653ea60d9ebadf169518e64f55666aae60078381548110620012b457634e487b7160e01b600052603260045260246000fd5b600091825260209091200154604051620012da916001600160a01b031690869062001a74565b60405180910390a15080620012ef8162001d9d565b915050620011b8565b50600380546001600160a01b0319166001600160a01b0392909216919091179055565b6200132562001941565b6001600160a01b03166200133862000fd4565b6001600160a01b031614620013615760405162461bcd60e51b8152600401620003799062001c05565b6001600160a01b0381166200138a5760405162461bcd60e51b8152600401620003799062001c3a565b60005b600754811015620014cd5760006005600060078481548110620013c057634e487b7160e01b600052603260045260246000fd5b60009182526020808320909101546001600160a01b039081168452908301939093526040918201902054905163dbb0a4e360e01b815291169150819063dbb0a4e3906200141290869060040162001a60565b600060405180830381600087803b1580156200142d57600080fd5b505af115801562001442573d6000803e3d6000fd5b505050507f6fff2d09d572fe1c3784fc61020cdae09d1e76a0a934c79b86c761695cd7f4a7600783815481106200148957634e487b7160e01b600052603260045260246000fd5b600091825260209091200154604051620014af916001600160a01b031690869062001a74565b60405180910390a15080620014c48162001d9d565b9150506200138d565b5050565b620014db62001941565b6001600160a01b0316620014ee62000fd4565b6001600160a01b031614620015175760405162461bcd60e51b8152600401620003799062001c05565b6001600160a01b038216620015405760405162461bcd60e51b8152600401620003799062001b5f565b6001600160a01b03821660009081526006602052604090205460ff161515600114620015805760405162461bcd60e51b8152600401620003799062001bce565b6001600160a01b038116620015a95760405162461bcd60e51b8152600401620003799062001c96565b6001600160a01b038083166000908152600560205260409081902054905163102172e160e11b81529116908190632042e5c290620015ec90859060040162001a60565b600060405180830381600087803b1580156200160757600080fd5b505af11580156200161c573d6000803e3d6000fd5b505050507fd7137e8024b165db50e14cfcad28604fa05875deea5fe5da13b692c2f591a7f38383604051620004be92919062001a74565b6200165d62001941565b6001600160a01b03166200167062000fd4565b6001600160a01b031614620016995760405162461bcd60e51b8152600401620003799062001c05565b6001600160a01b038116620016c25760405162461bcd60e51b8152600401620003799062001c96565b6001600160a01b03811660009081526009602052604090205460ff1615620016fe5760405162461bcd60e51b8152600401620003799062001c66565b60005b6007548110156200184157600060056000600784815481106200173457634e487b7160e01b600052603260045260246000fd5b60009182526020808320909101546001600160a01b03908116845290830193909352604091820190205490516339f3528160e21b815291169150819063e7cd4a04906200178690869060040162001a60565b600060405180830381600087803b158015620017a157600080fd5b505af1158015620017b6573d6000803e3d6000fd5b505050507fdaf3c8af4eb522112983c57ff516bb2b1f6a89a45f5219f179289f49c9b73b2a60078381548110620017fd57634e487b7160e01b600052603260045260246000fd5b60009182526020909120015460405162001823916001600160a01b031690869062001a74565b60405180910390a15080620018388162001d9d565b91505062001701565b506008805460018181019092557ff3f7a9fe364faab93b216da50a3214154f22a0a2b415b23a84c8169e8b636ee30180546001600160a01b039093166001600160a01b031990931683179055600091825260096020526040909120805460ff19169091179055565b6005602052600090815260409020546001600160a01b031681565b620018ce62001941565b6001600160a01b0316620018e162000fd4565b6001600160a01b0316146200190a5760405162461bcd60e51b8152600401620003799062001c05565b6001600160a01b038116620019335760405162461bcd60e51b8152600401620003799062001b88565b6200193e8162001945565b50565b3390565b600080546001600160a01b038381166001600160a01b0319831681178455604051919092169283917f8be0079c531659141344cd1fd0a4f28419497f9722a3daafe3b4186f6b6457e09190a35050565b6120728062001dc683390190565b80356001600160a01b0381168114620019bb57600080fd5b919050565b600060208284031215620019d2578081fd5b620019dd82620019a3565b9392505050565b60008060408385031215620019f7578081fd5b62001a0283620019a3565b915062001a1260208401620019a3565b90509250929050565b6000806040838503121562001a2e578182fd5b62001a3983620019a3565b946020939093013593505050565b60006020828403121562001a59578081fd5b5035919050565b6001600160a01b0391909116815260200190565b6001600160a01b0392831681529116602082015260400190565b6001600160a01b03929092168252602082015260400190565b6001600160a01b03948516815260208101939093529083166040830152909116606082015260800190565b901515815260200190565b6000602080835283518082850152825b8181101562001b0b5785810183015185820160400152820162001aed565b8181111562001b1d5783604083870101525b50601f01601f1916929092016040019392505050565b602080825260129082015271414444524553535f4e4f545f45584953545360701b604082015260600190565b6020808252600f908201526e0555345525f4d5553545f4e4f545f3608c1b604082015260600190565b60208082526026908201527f4f776e61626c653a206e6577206f776e657220697320746865207a65726f206160408201526564647265737360d01b606082015260800190565b60208082526017908201527f555345525f484156455f4e4f545f414e595f50524f5859000000000000000000604082015260600190565b6020808252818101527f4f776e61626c653a2063616c6c6572206973206e6f7420746865206f776e6572604082015260600190565b6020808252601290820152710464143544f52595f43414e5f545f42455f360741b604082015260600190565b602080825260169082015275414444524553535f414c52454144595f45584953545360501b604082015260600190565b6020808252601290820152710414444524553535f43414e5f545f42455f360741b604082015260600190565b60208082526018908201527f305f414444524553535f43414e5f545f42455f415f4445560000000000000000604082015260600190565b60208082526018908201527f555345525f414c52454144595f4841535f415f50524f58590000000000000000604082015260600190565b6020808252600d908201526c1393d7d5d212551157d31254d5609a1b604082015260600190565b90815260200190565b60028104600182168062001d7557607f821691505b6020821081141562001d9757634e487b7160e01b600052602260045260246000fd5b50919050565b600060001982141562001dbe57634e487b7160e01b81526011600452602481fd5b506001019056fe60806040523480156200001157600080fd5b50604051620020723803806200207283398101604081905262000034916200032e565b60016000556200004d6200004762000189565b6200018d565b6040805180820190915260128082527147656e6572616c20506174682050726f787960701b602090920191825262000088916002916200026b565b506040805180820190915260088082526750524f58595f563160c01b6020909201918252620000ba916003916200026b565b506001600160a01b038416620000ed5760405162461bcd60e51b8152600401620000e490620003f1565b60405180910390fd5b6001600160a01b038216620001165760405162461bcd60e51b8152600401620000e490620003c7565b6001600160a01b0381166200013f5760405162461bcd60e51b8152600401620000e4906200044e565b600580546001600160a01b038087166001600160a01b031992831617909255600685905560078054928416929091169190911790556200017f82620001df565b50505050620004b7565b3390565b600180546001600160a01b038381166001600160a01b0319831681179093556040519116919082907f8be0079c531659141344cd1fd0a4f28419497f9722a3daafe3b4186f6b6457e090600090a35050565b620001e962000189565b6001600160a01b0316620001fc6200025c565b6001600160a01b031614620002255760405162461bcd60e51b8152600401620000e49062000419565b6001600160a01b0381166200024e5760405162461bcd60e51b8152600401620000e49062000381565b62000259816200018d565b50565b6001546001600160a01b031690565b82805462000279906200047a565b90600052602060002090601f0160209004810192826200029d5760008555620002e8565b82601f10620002b857805160ff1916838001178555620002e8565b82800160010185558215620002e8579182015b82811115620002e8578251825591602001919060010190620002cb565b50620002f6929150620002fa565b5090565b5b80821115620002f65760008155600101620002fb565b80516001600160a01b03811681146200032957600080fd5b919050565b6000806000806080858703121562000344578384fd5b6200034f8562000311565b935060208501519250620003666040860162000311565b9150620003766060860162000311565b905092959194509250565b60208082526026908201527f4f776e61626c653a206e6577206f776e657220697320746865207a65726f206160408201526564647265737360d01b606082015260800190565b60208082526010908201526f04f574e45525f43414e5f545f42455f360841b604082015260600190565b6020808252600e908201526d04445565f43414e5f545f42455f360941b604082015260600190565b6020808252818101527f4f776e61626c653a2063616c6c6572206973206e6f7420746865206f776e6572604082015260600190565b6020808252601290820152710464143544f52595f43414e5f545f42455f360741b604082015260600190565b6002810460018216806200048f57607f821691505b60208210811415620004b157634e487b7160e01b600052602260045260246000fd5b50919050565b611bab80620004c76000396000f3fe6080604052600436106101025760003560e01c806395d89b4111610095578063ddca3f4311610064578063ddca3f4314610279578063e086e5ec1461029b578063e7cd4a04146102b0578063f2fde38b146102d0578063ff6e2c87146102f057610109565b806395d89b411461020f578063c45a015514610224578063d477f05f14610239578063dbb0a4e31461025957610109565b80636f9170f6116100d15780636f9170f614610196578063715018a6146101c35780638da5cb5b146101d857806391cca3db146101fa57610109565b806306fdde031461010b5780632042e5c21461013657806351cff8d91461015657806369fe0e2d1461017657610109565b3661010957005b005b34801561011757600080fd5b50610120610303565b60405161012d919061161a565b60405180910390f35b34801561014257600080fd5b50610109610151366004611435565b610391565b34801561016257600080fd5b50610109610171366004611435565b610482565b34801561018257600080fd5b5061010961019136600461152e565b6105b7565b3480156101a257600080fd5b506101b66101b1366004611435565b610615565b60405161012d919061160f565b3480156101cf57600080fd5b5061010961062a565b3480156101e457600080fd5b506101ed610675565b60405161012d919061158a565b34801561020657600080fd5b506101ed610684565b34801561021b57600080fd5b50610120610693565b34801561023057600080fd5b506101ed6106a0565b34801561024557600080fd5b50610109610254366004611435565b6106af565b34801561026557600080fd5b50610109610274366004611435565b61074a565b34801561028557600080fd5b5061028e6107e5565b60405161012d9190611a87565b3480156102a757600080fd5b506101096107eb565b3480156102bc57600080fd5b506101096102cb366004611435565b61086b565b3480156102dc57600080fd5b506101096102eb366004611435565b610947565b6101096102fe36600461144f565b6109b8565b6002805461031090611b16565b80601f016020809104026020016040519081016040528092919081815260200182805461033c90611b16565b80156103895780601f1061035e57610100808354040283529160200191610389565b820191906000526020600020905b81548152906001019060200180831161036c57829003601f168201915b505050505081565b6007546001600160a01b031633146103c45760405162461bcd60e51b81526004016103bb906117bb565b60405180910390fd5b6001600160a01b0381166103ea5760405162461bcd60e51b81526004016103bb906119a9565b6001600160a01b03811660009081526004602052604090205460ff1615156001146104275760405162461bcd60e51b81526004016103bb90611684565b6001600160a01b03811660009081526004602052604090819020805460ff19169055517f1e17ee0599b7c09bb1d0ff1e8086007909da8bfba5c7d18319cb558e66db37ee9061047790839061158a565b60405180910390a150565b61048a611038565b6001600160a01b031661049b610675565b6001600160a01b0316146104c15760405162461bcd60e51b81526004016103bb90611828565b6001600160a01b0381166104e75760405162461bcd60e51b81526004016103bb9061188d565b6040516370a0823160e01b81526000906001600160a01b038316906370a082319061051690309060040161158a565b60206040518083038186803b15801561052e57600080fd5b505afa158015610542573d6000803e3d6000fd5b505050506040513d601f19601f820116820180604052508101906105669190611546565b905061057a82610574610675565b8361103c565b7f7bf0873174a9cc6b28e039b52e74903dd59d650205f32748e3c3dd6b9918ea8782826040516105ab9291906115f6565b60405180910390a15050565b6007546001600160a01b031633146105e15760405162461bcd60e51b81526004016103bb906117bb565b60068190556040517e172ddfc5ae88d08b3de01a5a187667c37a5a53989e8c175055cb6c993792a790610477908390611a87565b60046020526000908152604090205460ff1681565b610632611038565b6001600160a01b0316610643610675565b6001600160a01b0316146106695760405162461bcd60e51b81526004016103bb90611828565b6106736000611129565b565b6001546001600160a01b031690565b6005546001600160a01b031681565b6003805461031090611b16565b6007546001600160a01b031681565b6007546001600160a01b031633146106d95760405162461bcd60e51b81526004016103bb906117bb565b6001600160a01b0381166106ff5760405162461bcd60e51b81526004016103bb906119d5565b600580546001600160a01b0319166001600160a01b0383161790556040517f8daa6bb00de042a7d51816fcee4a3d5c1e91a2128fd64fa1a9a38afa0d26beb59061047790839061158a565b6007546001600160a01b031633146107745760405162461bcd60e51b81526004016103bb906117bb565b6001600160a01b03811661079a5760405162461bcd60e51b81526004016103bb906118ba565b600780546001600160a01b0319166001600160a01b0383161790556040517fd01274d62c4192b5ba600651cb7a69f233c480d88b57471b6347633db7b2ce459061047790839061158a565b60065481565b6107f3611038565b6001600160a01b0316610804610675565b6001600160a01b03161461082a5760405162461bcd60e51b81526004016103bb90611828565b4761083c610836610675565b8261117b565b7f94effa14ea3a1ef396fa2fd829336d1597f1d76b548c26bfa2332869706638af816040516104779190611a87565b6007546001600160a01b031633146108955760405162461bcd60e51b81526004016103bb906117bb565b6001600160a01b0381166108bb5760405162461bcd60e51b81526004016103bb906119a9565b6001600160a01b03811660009081526004602052604090205460ff16156108f45760405162461bcd60e51b81526004016103bb906118e6565b6001600160a01b03811660009081526004602052604090819020805460ff19166001179055517ff8d5f40934646cedded2cab1b5960f020db583f154fabcf831277b87d1803d139061047790839061158a565b61094f611038565b6001600160a01b0316610960610675565b6001600160a01b0316146109865760405162461bcd60e51b81526004016103bb90611828565b6001600160a01b0381166109ac5760405162461bcd60e51b81526004016103bb906116db565b6109b581611129565b50565b81428110156109d95760405162461bcd60e51b81526004016103bb90611916565b600260005414156109fc5760405162461bcd60e51b81526004016103bb90611a50565b600260009081556001600160a01b03881681526004602052604090205460ff16610a385760405162461bcd60e51b81526004016103bb9061185d565b6001600160a01b038916610a5e5760405162461bcd60e51b81526004016103bb90611937565b81610a8e576001600160a01b038816610a895760405162461bcd60e51b81526004016103bb90611721565b610ab5565b6001600160a01b03881615610ab55760405162461bcd60e51b81526004016103bb906116b0565b60006001600160a01b038a1673eeeeeeeeeeeeeeeeeeeeeeeeeeeeeeeeeeeeeeee14610c1c576040516370a0823160e01b81526000906001600160a01b038c16906370a0823190610b0a90309060040161158a565b60206040518083038186803b158015610b2257600080fd5b505afa158015610b36573d6000803e3d6000fd5b505050506040513d601f19601f82011682018060405250810190610b5a9190611546565b9050610b688b33308b61120d565b6040516370a0823160e01b81526000906001600160a01b038d16906370a0823190610b9790309060040161158a565b60206040518083038186803b158015610baf57600080fd5b505afa158015610bc3573d6000803e3d6000fd5b505050506040513d601f19601f82011682018060405250810190610be79190611546565b9050610bf381836112fd565b925060008311610c155760405162461bcd60e51b81526004016103bb906117e1565b5050610c1f565b50345b600080600654118015610c3c57506005546001600160a01b031615155b15610c6b57610c68670de0b6b3a7640000610c626006548561131090919063ffffffff16565b9061131c565b90505b6000610c7783836112fd565b9050610c848c8b83611328565b6000600654118015610ca057506005546001600160a01b031615155b8015610cc957506001600160a01b038c1673eeeeeeeeeeeeeeeeeeeeeeeeeeeeeeeeeeeeeeee14155b15610ceb57600554610ce6908d906001600160a01b03168461103c565b610d4a565b6000600654118015610d0757506005546001600160a01b031615155b8015610d2f57506001600160a01b038c1673eeeeeeeeeeeeeeeeeeeeeeeeeeeeeeeeeeeeeeee145b15610d4a57600554610d4a906001600160a01b03168361117b565b600085610dfb576001600160a01b038c1673eeeeeeeeeeeeeeeeeeeeeeeeeeeeeeeeeeeeeeee14610df6576040516370a0823160e01b81526001600160a01b038d16906370a0823190610da190309060040161158a565b60206040518083038186803b158015610db957600080fd5b505afa158015610dcd573d6000803e3d6000fd5b505050506040513d601f19601f82011682018060405250810190610df19190611546565b610df8565b475b90505b60006001600160a01b03808d16908f1673eeeeeeeeeeeeeeeeeeeeeeeeeeeeeeeeeeeeeeee14610e2c576000610e2e565b835b8b8b604051610e3e92919061155e565b60006040518083038185875af1925050503d8060008114610e7b576040519150601f19603f3d011682016040523d82523d6000602084013e610e80565b606091505b50509050600081610ea35760405162461bcd60e51b81526004016103bb90611784565b87610fe6576001600160a01b038e1673eeeeeeeeeeeeeeeeeeeeeeeeeeeeeeeeeeeeeeee14610f5757610f52838f6001600160a01b03166370a08231306040518263ffffffff1660e01b8152600401610efc919061158a565b60206040518083038186803b158015610f1457600080fd5b505afa158015610f28573d6000803e3d6000fd5b505050506040513d601f19601f82011682018060405250810190610f4c9190611546565b906112fd565b610f61565b610f6147846112fd565b90506001600160a01b038e1673eeeeeeeeeeeeeeeeeeeeeeeeeeeeeeeeeeeeeeee1415610f9757610f92338261117b565b610fa2565b610fa28e338361103c565b7fcd3829a3813dc3cdd188fd3d01dcf3268c16be2fdd2dd21d0665418816e460628f8f338f85604051610fd995949392919061159e565b60405180910390a1611022565b7f34d0a8e5b6aeb8af74211e98cacf797d309f5359087a7ef68c5573e2033428ba8f338e604051611019939291906115d2565b60405180910390a15b5050600160005550505050505050505050505050565b3390565b600080846001600160a01b031663a9059cbb85856040516024016110619291906115f6565b6040516020818303038152906040529060e01b6020820180516001600160e01b03838183161783525050505060405161109a919061156e565b6000604051808303816000865af19150503d80600081146110d7576040519150601f19603f3d011682016040523d82523d6000602084013e6110dc565b606091505b50915091508180156111065750805115806111065750808060200190518101906111069190611512565b6111225760405162461bcd60e51b81526004016103bb9061164d565b5050505050565b600180546001600160a01b038381166001600160a01b0319831681179093556040519116919082907f8be0079c531659141344cd1fd0a4f28419497f9722a3daafe3b4186f6b6457e090600090a35050565b604080516000808252602082019092526001600160a01b0384169083906040516111a5919061156e565b60006040518083038185875af1925050503d80600081146111e2576040519150601f19603f3d011682016040523d82523d6000602084013e6111e7565b606091505b50509050806112085760405162461bcd60e51b81526004016103bb90611966565b505050565b600080856001600160a01b03166323b872dd868686604051602401611234939291906115d2565b6040516020818303038152906040529060e01b6020820180516001600160e01b03838183161783525050505060405161126d919061156e565b6000604051808303816000865af19150503d80600081146112aa576040519150601f19603f3d011682016040523d82523d6000602084013e6112af565b606091505b50915091508180156112d95750805115806112d95750808060200190518101906112d99190611512565b6112f55760405162461bcd60e51b81526004016103bb90611a0c565b505050505050565b60006113098284611acf565b9392505050565b60006113098284611ab0565b60006113098284611a90565b600080846001600160a01b031663095ea7b3858560405160240161134d9291906115f6565b6040516020818303038152906040529060e01b6020820180516001600160e01b038381831617835250505050604051611386919061156e565b6000604051808303816000865af19150503d80600081146113c3576040519150601f19603f3d011682016040523d82523d6000602084013e6113c8565b606091505b50915091508180156113f25750805115806113f25750808060200190518101906113f29190611512565b6111225760405162461bcd60e51b81526004016103bb9061174d565b80356001600160a01b038116811461142557600080fd5b919050565b803561142581611b67565b600060208284031215611446578081fd5b6113098261140e565b60008060008060008060008060e0898b03121561146a578384fd5b6114738961140e565b975061148160208a0161140e565b965061148f60408a0161140e565b955060608901359450608089013567ffffffffffffffff808211156114b2578586fd5b818b0191508b601f8301126114c5578586fd5b8135818111156114d3578687fd5b8c60208285010111156114e4578687fd5b60208301965080955050505060a0890135915061150360c08a0161142a565b90509295985092959890939650565b600060208284031215611523578081fd5b815161130981611b67565b60006020828403121561153f578081fd5b5035919050565b600060208284031215611557578081fd5b5051919050565b6000828483379101908152919050565b60008251611580818460208701611ae6565b9190910192915050565b6001600160a01b0391909116815260200190565b6001600160a01b03958616815293851660208501529190931660408301526060820192909252608081019190915260a00190565b6001600160a01b039384168152919092166020820152604081019190915260600190565b6001600160a01b03929092168252602082015260400190565b901515815260200190565b6000602082528251806020840152611639816040850160208701611ae6565b601f01601f19169190910160400192915050565b6020808252601f908201527f5472616e7366657248656c7065723a205452414e534645525f4641494c454400604082015260600190565b602080825260129082015271414444524553535f4e4f545f45584953545360701b604082015260600190565b6020808252601190820152700544f544f4b454e5f4d5553545f42455f3607c1b604082015260600190565b60208082526026908201527f4f776e61626c653a206e6577206f776e657220697320746865207a65726f206160408201526564647265737360d01b606082015260800190565b6020808252601290820152710544f544f4b454e5f43414e5f545f42455f360741b604082015260600190565b6020808252601e908201527f5472616e7366657248656c7065723a20415050524f56455f4641494c45440000604082015260600190565b6020808252601e908201527f45585445524e414c5f535741505f455845435554494f4e5f4641494c45440000604082015260600190565b6020808252600c908201526b4f4e4c595f464143544f525960a01b604082015260600190565b60208082526027908201527f4e4f5f46524f4d5f544f4b454e5f5452414e534645525f544f5f544849535f4360408201526613d395149050d560ca1b606082015260800190565b6020808252818101527f4f776e61626c653a2063616c6c6572206973206e6f7420746865206f776e6572604082015260600190565b6020808252601690820152751393d517d5d2125511531254d517d0d3d395149050d560521b604082015260600190565b6020808252601390820152720544f4b454e5f4d5553545f4e4f545f42455f3606c1b604082015260600190565b6020808252601290820152710464143544f52595f43414e5f545f42455f360741b604082015260600190565b602080825260169082015275414444524553535f414c52454144595f45584953545360501b604082015260600190565b6020808252600790820152661156141254915160ca1b604082015260600190565b602080825260159082015274046524f4d544f4b454e5f43414e545f545f42455f3605c1b604082015260600190565b60208082526023908201527f5472616e7366657248656c7065723a204554485f5452414e534645525f46414960408201526213115160ea1b606082015260800190565b6020808252601290820152710414444524553535f43414e5f545f42455f360741b604082015260600190565b60208082526018908201527f305f414444524553535f43414e5f545f42455f415f4445560000000000000000604082015260600190565b60208082526024908201527f5472616e7366657248656c7065723a205452414e534645525f46524f4d5f46416040820152631253115160e21b606082015260800190565b6020808252601f908201527f5265656e7472616e637947756172643a207265656e7472616e742063616c6c00604082015260600190565b90815260200190565b600082611aab57634e487b7160e01b81526012600452602481fd5b500490565b6000816000190483118215151615611aca57611aca611b51565b500290565b600082821015611ae157611ae1611b51565b500390565b60005b83811015611b01578181015183820152602001611ae9565b83811115611b10576000848401525b50505050565b600281046001821680611b2a57607f821691505b60208210811415611b4b57634e487b7160e01b600052602260045260246000fd5b50919050565b634e487b7160e01b600052601160045260246000fd5b80151581146109b557600080fdfea2646970667358221220b70ee677766186890443724cfeb20bd73314575db8c7f81c75ba03942da73f7a64736f6c63430008000033a2646970667358221220c0529cb03476e11aa38e1aec515e75209e1e66efb7980bac525f4bbc53b972e964736f6c63430008000033",
  "immutableReferences": {},
  "source": "// SPDX-License-Identifier: MIT\r\n\r\npragma solidity ^0.8.0;\r\n\r\nimport \"@openzeppelin/contracts/access/Ownable.sol\";\r\nimport \"./GeneralPathProxy.sol\";\r\nimport \"./interfaces/IGeneralPathProxy.sol\";\r\n\r\n/// @notice Path Proxy's Factory\r\ncontract PathProxyFactory is Ownable {\r\n    string public name;\r\n\r\n    string public symbol;\r\n\r\n    address dev;\r\n\r\n    uint256 fee;\r\n\r\n    mapping(address => address) public proxyMap;\r\n\r\n    mapping(address => bool) public proxyExists;\r\n\r\n    address[] public users;\r\n\r\n    address[] public whiteList;\r\n    mapping(address => bool) public isWhiteListed;\r\n\r\n    event CreateProxy(address dev, uint256 fee, address owner, address factory);\r\n    event SetFee(address _user, uint256 fee);\r\n    event SetDev(address _user, address _dev);\r\n    event AddWhiteList(address _user, address contractAddress);\r\n    event RemoveWhiteList(address _user, address contractAddr);\r\n    event TransferFactoryTo(address _user, address _fac);\r\n\r\n    constructor(\r\n        address _owner,\r\n        address _dev,\r\n        uint256 _fee\r\n    ) {\r\n        name = \"Path Proxy Factory\";\r\n        symbol = \"FACTORY_V1\";\r\n\r\n        require(_dev != address(0), \"DEV_CAN_T_BE_0\");\r\n        require(_owner != address(0), \"OWNER_CAN_T_BE_0\");\r\n        dev = _dev;\r\n        fee = _fee;\r\n        transferOwnership(_owner);\r\n    }\r\n\r\n    function createProxy() public {\r\n        require(proxyExists[msg.sender] == false, \"USER_ALREADY_HAS_A_PROXY\");\r\n        require(whiteList.length > 0, \"NO_WHITE_LIST\");\r\n        GeneralPathProxy proxy = new GeneralPathProxy(\r\n            dev,\r\n            fee,\r\n            msg.sender,\r\n            address(this)\r\n        );\r\n        for (uint256 i = 0; i < whiteList.length; i++) {\r\n            if (whiteList[i] != address(0)) {\r\n                proxy.addWhiteList(whiteList[i]);\r\n            }\r\n        }\r\n        proxyMap[msg.sender] = address(proxy);\r\n        proxyExists[msg.sender] = true;\r\n        users.push(msg.sender);\r\n        emit CreateProxy(dev, fee, msg.sender, address(this));\r\n    }\r\n\r\n    function setFee(uint256 _fee) external onlyOwner {\r\n        for (uint256 i = 0; i < users.length; i++) {\r\n            IGeneralPathProxy proxy = IGeneralPathProxy(proxyMap[users[i]]);\r\n            proxy.setFee(_fee);\r\n            emit SetFee(users[i], _fee);\r\n        }\r\n        fee = _fee;\r\n    }\r\n\r\n    function setFeeToUser(address _user, uint256 _fee) external onlyOwner {\r\n        require(_user != address(0), \"USER_MUST_NOT_0\");\r\n        require(proxyExists[_user] == true, \"USER_HAVE_NOT_ANY_PROXY\");\r\n        IGeneralPathProxy proxy = IGeneralPathProxy(proxyMap[_user]);\r\n        proxy.setFee(_fee);\r\n        emit SetFee(_user, _fee);\r\n    }\r\n\r\n    function setDev(address _dev) external onlyOwner {\r\n        require(_dev != address(0), \"0_ADDRESS_CAN_T_BE_A_DEV\");\r\n        for (uint256 i = 0; i < users.length; i++) {\r\n            IGeneralPathProxy proxy = IGeneralPathProxy(proxyMap[users[i]]);\r\n            proxy.setDev(_dev);\r\n            emit SetDev(users[i], _dev);\r\n        }\r\n        dev = _dev;\r\n    }\r\n\r\n    function setDevToUser(address _user, address _dev) external onlyOwner {\r\n        require(_user != address(0), \"USER_MUST_NOT_0\");\r\n        require(proxyExists[_user] == true, \"USER_HAVE_NOT_ANY_PROXY\");\r\n        require(_dev != address(0), \"0_ADDRESS_CAN_T_BE_A_DEV\");\r\n        IGeneralPathProxy proxy = IGeneralPathProxy(proxyMap[_user]);\r\n        proxy.setDev(_dev);\r\n        emit SetDev(_user, _dev);\r\n    }\r\n\r\n    function addWhiteList(address contractAddr) public onlyOwner {\r\n        require(contractAddr != address(0), \"ADDRESS_CAN_T_BE_0\");\r\n        require(isWhiteListed[contractAddr] == false, \"ADDRESS_ALREADY_EXISTS\");\r\n        for (uint256 i = 0; i < users.length; i++) {\r\n            IGeneralPathProxy proxy = IGeneralPathProxy(proxyMap[users[i]]);\r\n            proxy.addWhiteList(contractAddr);\r\n            emit AddWhiteList(users[i], contractAddr);\r\n        }\r\n        whiteList.push(contractAddr);\r\n        isWhiteListed[contractAddr] = true;\r\n    }\r\n\r\n    function addWhiteListToUser(address _user, address contractAddr)\r\n        public\r\n        onlyOwner\r\n    {\r\n        require(_user != address(0), \"USER_MUST_NOT_0\");\r\n        require(proxyExists[_user] == true, \"USER_HAVE_NOT_ANY_PROXY\");\r\n        require(contractAddr != address(0), \"ADDRESS_CAN_T_BE_0\");\r\n        IGeneralPathProxy proxy = IGeneralPathProxy(proxyMap[_user]);\r\n        proxy.addWhiteList(contractAddr);\r\n    }\r\n\r\n    function removeWhiteList(address contractAddr) public onlyOwner {\r\n        require(contractAddr != address(0), \"ADDRESS_CAN_T_BE_0\");\r\n        require(isWhiteListed[contractAddr] == true, \"ADDRESS_NOT_EXISTS\");\r\n        for (uint256 i = 0; i < users.length; i++) {\r\n            IGeneralPathProxy proxy = IGeneralPathProxy(proxyMap[users[i]]);\r\n            proxy.removeWhiteList(contractAddr);\r\n            emit RemoveWhiteList(users[i], contractAddr);\r\n        }\r\n        for (uint256 i = 0; i < whiteList.length; i++) {\r\n            if (whiteList[i] == contractAddr) {\r\n                whiteList[i] = address(0);\r\n            }\r\n        }\r\n        isWhiteListed[contractAddr] = false;\r\n    }\r\n\r\n    function removeWhiteListFromUser(address _user, address contractAddr)\r\n        public\r\n        onlyOwner\r\n    {\r\n        require(_user != address(0), \"USER_MUST_NOT_0\");\r\n        require(proxyExists[_user] == true, \"USER_HAVE_NOT_ANY_PROXY\");\r\n        require(contractAddr != address(0), \"ADDRESS_CAN_T_BE_0\");\r\n        IGeneralPathProxy proxy = IGeneralPathProxy(proxyMap[_user]);\r\n        proxy.removeWhiteList(contractAddr);\r\n        emit RemoveWhiteList(_user, contractAddr);\r\n    }\r\n\r\n    function transferFactoryTo(address _fac) public onlyOwner {\r\n        require(_fac != address(0), \"FACTORY_CAN_T_BE_0\");\r\n        for (uint256 i = 0; i < users.length; i++) {\r\n            IGeneralPathProxy proxy = IGeneralPathProxy(proxyMap[users[i]]);\r\n            proxy.transferFactoryTo(_fac);\r\n            emit TransferFactoryTo(users[i], _fac);\r\n        }\r\n    }\r\n\r\n    function transferFactoryToForUser(address _user, address _fac) public onlyOwner {\r\n        require(_user != address(0), \"USER_MUST_NOT_0\");\r\n        require(proxyExists[_user] == true, \"USER_HAVE_NOT_ANY_PROXY\");\r\n        require(_fac != address(0), \"FACTORY_CAN_T_BE_0\");\r\n        IGeneralPathProxy proxy = IGeneralPathProxy(proxyMap[_user]);\r\n        proxy.transferFactoryTo(_fac);\r\n        emit TransferFactoryTo(_user, _fac);\r\n    }\r\n}\r\n",
  "sourcePath": "D:\\swft\\path-contracts\\contracts\\PathProxyFactory.sol",
  "compiler": {
    "name": "solc",
    "version": "0.8.0+commit.c7dfd78e.Emscripten.clang"
  },
  "schemaVersion": "3.4.3",
  "updatedAt": "2022-03-24T06:54:49.297Z",
  "networkType": "ethereum",
  "devdoc": {
    "kind": "dev",
    "methods": {
      "owner()": {
        "details": "Returns the address of the current owner."
      },
      "renounceOwnership()": {
        "details": "Leaves the contract without owner. It will not be possible to call `onlyOwner` functions anymore. Can only be called by the current owner. NOTE: Renouncing ownership will leave the contract without an owner, thereby removing any functionality that is only available to the owner."
      },
      "transferOwnership(address)": {
        "details": "Transfers ownership of the contract to a new account (`newOwner`). Can only be called by the current owner."
      }
    },
    "version": 1
  },
  "userdoc": {
    "kind": "user",
    "methods": {},
    "notice": "Path Proxy's Factory",
    "version": 1
  }
}